{"abi":[{"type":"constructor","inputs":[{"name":"_title","type":"string","internalType":"string"},{"name":"_author","type":"string","internalType":"string"},{"name":"_pages","type":"uint256","internalType":"uint256"}],"stateMutability":"nonpayable"},{"type":"function","name":"book","inputs":[],"outputs":[{"name":"title","type":"string","internalType":"string"},{"name":"author","type":"string","internalType":"string"},{"name":"pages","type":"uint256","internalType":"uint256"}],"stateMutability":"view"},{"type":"function","name":"get_book","inputs":[],"outputs":[{"name":"","type":"tuple","internalType":"struct Books.Book","components":[{"name":"title","type":"string","internalType":"string"},{"name":"author","type":"string","internalType":"string"},{"name":"pages","type":"uint256","internalType":"uint256"}]}],"stateMutability":"view"},{"type":"function","name":"update_pages","inputs":[{"name":"_pages","type":"uint256","internalType":"uint256"}],"outputs":[],"stateMutability":"nonpayable"}],"bytecode":{"object":"0x60806040523480156200001157600080fd5b5060405162000b4c38038062000b4c833981810160405281019062000037919062000349565b826001600001908051906020019062000052929190620000c1565b50816001800190805190602001906200006d929190620000c1565b5080600160020181905550336000806101000a81548173ffffffffffffffffffffffffffffffffffffffff021916908373ffffffffffffffffffffffffffffffffffffffff16021790555050505062000447565b828054620000cf9062000412565b90600052602060002090601f016020900481019282620000f357600085556200013f565b82601f106200010e57805160ff19168380011785556200013f565b828001600101855582156200013f579182015b828111156200013e57825182559160200191906001019062000121565b5b5090506200014e919062000152565b5090565b5b808211156200016d57600081600090555060010162000153565b5090565b6000604051905090565b600080fd5b600080fd5b600080fd5b600080fd5b6000601f19601f8301169050919050565b7f4e487b7100000000000000000000000000000000000000000000000000000000600052604160045260246000fd5b620001da826200018f565b810181811067ffffffffffffffff82111715620001fc57620001fb620001a0565b5b80604052505050565b60006200021162000171565b90506200021f8282620001cf565b919050565b600067ffffffffffffffff821115620002425762000241620001a0565b5b6200024d826200018f565b9050602081019050919050565b60005b838110156200027a5780820151818401526020810190506200025d565b838111156200028a576000848401525b50505050565b6000620002a7620002a18462000224565b62000205565b905082815260208101848484011115620002c657620002c56200018a565b5b620002d38482856200025a565b509392505050565b600082601f830112620002f357620002f262000185565b5b81516200030584826020860162000290565b91505092915050565b6000819050919050565b62000323816200030e565b81146200032f57600080fd5b50565b600081519050620003438162000318565b92915050565b6000806000606084860312156200036557620003646200017b565b5b600084015167ffffffffffffffff81111562000386576200038562000180565b5b6200039486828701620002db565b935050602084015167ffffffffffffffff811115620003b857620003b762000180565b5b620003c686828701620002db565b9250506040620003d98682870162000332565b9150509250925092565b7f4e487b7100000000000000000000000000000000000000000000000000000000600052602260045260246000fd5b600060028204905060018216806200042b57607f821691505b602082108103620004415762000440620003e3565b5b50919050565b6106f580620004576000396000f3fe608060405234801561001057600080fd5b50600436106100415760003560e01c806305a8da7214610046578063c3cad83e14610066578063e008e54414610082575b600080fd5b61004e6100a0565b60405161005d9392919061047e565b60405180910390f35b610080600480360381019061007b91906104f4565b6101c8565b005b61008a610263565b60405161009791906105d1565b60405180910390f35b60018060000180546100b190610622565b80601f01602080910402602001604051908101604052809291908181526020018280546100dd90610622565b801561012a5780601f106100ff5761010080835404028352916020019161012a565b820191906000526020600020905b81548152906001019060200180831161010d57829003601f168201915b50505050509080600101805461013f90610622565b80601f016020809104026020016040519081016040528092919081815260200182805461016b90610622565b80156101b85780601f1061018d576101008083540402835291602001916101b8565b820191906000526020600020905b81548152906001019060200180831161019b57829003601f168201915b5050505050908060020154905083565b60008054906101000a900473ffffffffffffffffffffffffffffffffffffffff1673ffffffffffffffffffffffffffffffffffffffff163373ffffffffffffffffffffffffffffffffffffffff1614610256576040517f08c379a000000000000000000000000000000000000000000000000000000000815260040161024d9061069f565b60405180910390fd5b8060016002018190555050565b61026b6103ab565b600160405180606001604052908160008201805461028890610622565b80601f01602080910402602001604051908101604052809291908181526020018280546102b490610622565b80156103015780601f106102d657610100808354040283529160200191610301565b820191906000526020600020905b8154815290600101906020018083116102e457829003601f168201915b5050505050815260200160018201805461031a90610622565b80601f016020809104026020016040519081016040528092919081815260200182805461034690610622565b80156103935780601f1061036857610100808354040283529160200191610393565b820191906000526020600020905b81548152906001019060200180831161037657829003601f168201915b50505050508152602001600282015481525050905090565b60405180606001604052806060815260200160608152602001600081525090565b600081519050919050565b600082825260208201905092915050565b60005b838110156104065780820151818401526020810190506103eb565b83811115610415576000848401525b50505050565b6000601f19601f8301169050919050565b6000610437826103cc565b61044181856103d7565b93506104518185602086016103e8565b61045a8161041b565b840191505092915050565b6000819050919050565b61047881610465565b82525050565b60006060820190508181036000830152610498818661042c565b905081810360208301526104ac818561042c565b90506104bb604083018461046f565b949350505050565b600080fd5b6104d181610465565b81146104dc57600080fd5b50565b6000813590506104ee816104c8565b92915050565b60006020828403121561050a576105096104c3565b5b6000610518848285016104df565b91505092915050565b600082825260208201905092915050565b600061053d826103cc565b6105478185610521565b93506105578185602086016103e8565b6105608161041b565b840191505092915050565b61057481610465565b82525050565b600060608301600083015184820360008601526105978282610532565b915050602083015184820360208601526105b18282610532565b91505060408301516105c6604086018261056b565b508091505092915050565b600060208201905081810360008301526105eb818461057a565b905092915050565b7f4e487b7100000000000000000000000000000000000000000000000000000000600052602260045260246000fd5b6000600282049050600182168061063a57607f821691505b60208210810361064d5761064c6105f3565b5b50919050565b7f596f7520617265206e6f7420746865204f776e65720000000000000000000000600082015250565b60006106896015836103d7565b915061069482610653565b602082019050919050565b600060208201905081810360008301526106b88161067c565b905091905056fea2646970667358221220c97d3141a71bc0709d11edd0d160e44b7f129486dc314872d36090057910bd6664736f6c634300080d0033","linkReferences":{}},"methodIdentifiers":{"book()":"05a8da72","get_book()":"e008e544","update_pages(uint256)":"c3cad83e"},"id":22}